{
  "address": "0xc60c82015950cEA90063b5Bfe4c5AEB0c05A70eA",
  "abi": [
    {
      "inputs": [],
      "stateMutability": "nonpayable",
      "type": "constructor"
    },
    {
      "inputs": [],
      "name": "balanceOfContract",
      "outputs": [
        {
          "internalType": "uint256",
          "name": "",
          "type": "uint256"
        }
      ],
      "stateMutability": "view",
      "type": "function"
    },
    {
      "inputs": [],
      "name": "deposit",
      "outputs": [],
      "stateMutability": "payable",
      "type": "function"
    },
    {
      "inputs": [],
      "name": "owner",
      "outputs": [
        {
          "internalType": "address payable",
          "name": "",
          "type": "address"
        }
      ],
      "stateMutability": "view",
      "type": "function"
    },
    {
      "inputs": [
        {
          "internalType": "address payable",
          "name": "to",
          "type": "address"
        },
        {
          "internalType": "uint256",
          "name": "amount",
          "type": "uint256"
        }
      ],
      "name": "send",
      "outputs": [],
      "stateMutability": "nonpayable",
      "type": "function"
    }
  ],
  "transactionHash": "0x4a90e944a269e77ff31b4a0f923fce40be24af1a762fdd116509f8a2230ec2d3",
  "args": [],
  "numDeployments": 1,
  "solcInputHash": "cbb14ab9fb765bc723a52fec901ed99b",
  "bytecode": "0x608060405234801561001057600080fd5b50336000806101000a81548173ffffffffffffffffffffffffffffffffffffffff021916908373ffffffffffffffffffffffffffffffffffffffff1602179055506103b4806100606000396000f3fe60806040526004361061003f5760003560e01c80638da5cb5b14610044578063d0679d341461006f578063d0e30db014610098578063e6c7c456146100a2575b600080fd5b34801561005057600080fd5b506100596100cd565b6040516100669190610215565b60405180910390f35b34801561007b57600080fd5b5061009660048036038101906100919190610297565b6100f1565b005b6100a06101ca565b005b3480156100ae57600080fd5b506100b76101cc565b6040516100c491906102e6565b60405180910390f35b60008054906101000a900473ffffffffffffffffffffffffffffffffffffffff1681565b60008054906101000a900473ffffffffffffffffffffffffffffffffffffffff1673ffffffffffffffffffffffffffffffffffffffff163373ffffffffffffffffffffffffffffffffffffffff161461017f576040517f08c379a00000000000000000000000000000000000000000000000000000000081526004016101769061035e565b60405180910390fd5b8173ffffffffffffffffffffffffffffffffffffffff166108fc829081150290604051600060405180830381858888f193505050501580156101c5573d6000803e3d6000fd5b505050565b565b600047905090565b600073ffffffffffffffffffffffffffffffffffffffff82169050919050565b60006101ff826101d4565b9050919050565b61020f816101f4565b82525050565b600060208201905061022a6000830184610206565b92915050565b600080fd5b61023e816101f4565b811461024957600080fd5b50565b60008135905061025b81610235565b92915050565b6000819050919050565b61027481610261565b811461027f57600080fd5b50565b6000813590506102918161026b565b92915050565b600080604083850312156102ae576102ad610230565b5b60006102bc8582860161024c565b92505060206102cd85828601610282565b9150509250929050565b6102e081610261565b82525050565b60006020820190506102fb60008301846102d7565b92915050565b600082825260208201905092915050565b7f53656e646572206973206e6f74206f776e657200000000000000000000000000600082015250565b6000610348601383610301565b915061035382610312565b602082019050919050565b600060208201905081810360008301526103778161033b565b905091905056fea2646970667358221220cae9dcc8cd247ee3ad0c61acd8f313edeba0c6b0d8e289e9e18f05c33c3f3e8764736f6c63430008110033",
  "devdoc": {
    "kind": "dev",
    "methods": {},
    "version": 1
  },
  "userdoc": {
    "kind": "user",
    "methods": {},
    "version": 1
  },
  "storageLayout": {
    "storage": [
      {
        "astId": 3,
        "contract": "contracts/EtherWallet.sol:EtherWallet",
        "label": "owner",
        "offset": 0,
        "slot": "0",
        "type": "t_address_payable"
      }
    ],
    "types": {
      "t_address_payable": {
        "encoding": "inplace",
        "label": "address payable",
        "numberOfBytes": "20"
      }
    }
  }
}